{
  "contractName": "Election",
  "abi": [
    {
      "constant": true,
      "inputs": [],
      "name": "count",
      "outputs": [
        {
          "name": "",
          "type": "uint256"
        }
      ],
      "payable": false,
      "stateMutability": "view",
      "type": "function"
    },
    {
      "constant": true,
      "inputs": [
        {
          "name": "",
          "type": "uint256"
        }
      ],
      "name": "candidates",
      "outputs": [
        {
          "name": "name",
          "type": "string"
        },
        {
          "name": "id",
          "type": "uint256"
        },
        {
          "name": "votecount",
          "type": "uint256"
        }
      ],
      "payable": false,
      "stateMutability": "view",
      "type": "function"
    },
    {
      "inputs": [],
      "payable": false,
      "stateMutability": "nonpayable",
      "type": "constructor"
    }
  ],
  "bytecode": "0x608060405234801561001057600080fd5b5061005e6040805190810160405280600b81526020017f43616e6469646174655f310000000000000000000000000000000000000000008152506100b0640100000000026401000000009004565b6100ab6040805190810160405280600b81526020017f43616e6469646174655f320000000000000000000000000000000000000000008152506100b0640100000000026401000000009004565b6101d1565b600160008154809291906001019190505550606060405190810160405280828152602001600154815260200160008152506000806001548152602001908152602001600020600082015181600001908051906020019061011192919061012c565b50602082015181600101556040820151816002015590505050565b828054600181600116156101000203166002900490600052602060002090601f016020900481019282601f1061016d57805160ff191683800117855561019b565b8280016001018555821561019b579182015b8281111561019a57825182559160200191906001019061017f565b5b5090506101a891906101ac565b5090565b6101ce91905b808211156101ca5760008160009055506001016101b2565b5090565b90565b610224806101e06000396000f30060806040526004361061004c576000357c0100000000000000000000000000000000000000000000000000000000900463ffffffff16806306661abd146100515780633477ee2e1461007c575b600080fd5b34801561005d57600080fd5b50610066610130565b6040518082815260200191505060405180910390f35b34801561008857600080fd5b506100a760048036038101908080359060200190929190505050610136565b6040518080602001848152602001838152602001828103825285818151815260200191508051906020019080838360005b838110156100f35780820151818401526020810190506100d8565b50505050905090810190601f1680156101205780820380516001836020036101000a031916815260200191505b5094505050505060405180910390f35b60015481565b6000602052806000526040600020600091509050806000018054600181600116156101000203166002900480601f0160208091040260200160405190810160405280929190818152602001828054600181600116156101000203166002900480156101e25780601f106101b7576101008083540402835291602001916101e2565b820191906000526020600020905b8154815290600101906020018083116101c557829003601f168201915b50505050509080600101549080600201549050835600a165627a7a723058208df1aa83fdb0127199b804c7d8477472d877d38cd38dc3f65e3defe132b109880029",
  "source": "pragma solidity ^0.4.24;\n\n\ncontract Election {\n\n    // model your candidate\n    struct Candidate {\n        string name;\n        uint id;\n        uint votecount;\n    } \n\n    // store the candidate (it will be done through mapping)\n\n    mapping(uint => Candidate) public candidates;\n\n    // use variable to maintain the count of the candidate\n    uint public count;\n\n    //constructor\n    constructor () public {\n       addCandidate(\"Candidate_1\");\n       addCandidate(\"Candidate_2\");\n    }\n\n\n    // function to add candidate (call this function from constructor)\n\n    function addCandidate(string _name) private {\n        count++;\n        candidates[count] = Candidate(_name,count,0);\n\n    }\n}",
  "sourcePath": "/home/mauzi/Desktop/FProject/Election/contracts/Election.sol",
  "compiler": {
    "name": "solc",
    "version": "0.4.24+commit.e67f0147.Emscripten.clang"
  },
  "schemaVersion": "2.0.1",
  "updatedAt": "2018-11-05T23:12:15.403Z"
}