{
  "contractName": "Election",
  "abi": [
    {
      "constant": true,
      "inputs": [],
      "name": "count",
      "outputs": [
        {
          "name": "",
          "type": "uint256"
        }
      ],
      "payable": false,
      "stateMutability": "view",
      "type": "function"
    },
    {
      "constant": true,
      "inputs": [
        {
          "name": "",
          "type": "uint256"
        }
      ],
      "name": "candidates",
      "outputs": [
        {
          "name": "name",
          "type": "string"
        },
        {
          "name": "id",
          "type": "uint256"
        },
        {
          "name": "votecount",
          "type": "uint256"
        }
      ],
      "payable": false,
      "stateMutability": "view",
      "type": "function"
    },
    {
      "constant": true,
      "inputs": [
        {
          "name": "",
          "type": "address"
        }
      ],
      "name": "voter",
      "outputs": [
        {
          "name": "",
          "type": "bool"
        }
      ],
      "payable": false,
      "stateMutability": "view",
      "type": "function"
    },
    {
      "inputs": [],
      "payable": false,
      "stateMutability": "nonpayable",
      "type": "constructor"
    },
    {
      "constant": false,
      "inputs": [
        {
          "name": "id",
          "type": "uint256"
        }
      ],
      "name": "castVote",
      "outputs": [],
      "payable": false,
      "stateMutability": "nonpayable",
      "type": "function"
    }
  ],
  "bytecode": "0x608060405234801561001057600080fd5b5061005e6040805190810160405280600b81526020017f43616e6469646174655f310000000000000000000000000000000000000000008152506100b0640100000000026401000000009004565b6100ab6040805190810160405280600b81526020017f43616e6469646174655f320000000000000000000000000000000000000000008152506100b0640100000000026401000000009004565b6101d1565b600260008154809291906001019190505550606060405190810160405280828152602001600254815260200160008152506000806002548152602001908152602001600020600082015181600001908051906020019061011192919061012c565b50602082015181600101556040820151816002015590505050565b828054600181600116156101000203166002900490600052602060002090601f016020900481019282601f1061016d57805160ff191683800117855561019b565b8280016001018555821561019b579182015b8281111561019a57825182559160200191906001019061017f565b5b5090506101a891906101ac565b5090565b6101ce91905b808211156101ca5760008160009055506001016101b2565b5090565b90565b6103d7806101e06000396000f300608060405260043610610062576000357c0100000000000000000000000000000000000000000000000000000000900463ffffffff16806306661abd146100675780633477ee2e146100925780633eb76b9c14610146578063af0dbe5414610173575b600080fd5b34801561007357600080fd5b5061007c6101ce565b6040518082815260200191505060405180910390f35b34801561009e57600080fd5b506100bd600480360381019080803590602001909291905050506101d4565b6040518080602001848152602001838152602001828103825285818151815260200191508051906020019080838360005b838110156101095780820151818401526020810190506100ee565b50505050905090810190601f1680156101365780820380516001836020036101000a031916815260200191505b5094505050505060405180910390f35b34801561015257600080fd5b5061017160048036038101908080359060200190929190505050610296565b005b34801561017f57600080fd5b506101b4600480360381019080803573ffffffffffffffffffffffffffffffffffffffff16906020019092919050505061038b565b604051808215151515815260200191505060405180910390f35b60025481565b6000602052806000526040600020600091509050806000018054600181600116156101000203166002900480601f0160208091040260200160405190810160405280929190818152602001828054600181600116156101000203166002900480156102805780601f1061025557610100808354040283529160200191610280565b820191906000526020600020905b81548152906001019060200180831161026357829003601f168201915b5050505050908060010154908060020154905083565b600160003373ffffffffffffffffffffffffffffffffffffffff1673ffffffffffffffffffffffffffffffffffffffff16815260200190815260200160002060009054906101000a900460ff161515156102ef57600080fd5b60008111801561030157506002548111155b151561030c57600080fd5b60018060003373ffffffffffffffffffffffffffffffffffffffff1673ffffffffffffffffffffffffffffffffffffffff16815260200190815260200160002060006101000a81548160ff0219169083151502179055506000808281526020019081526020016000206002016000815480929190600101919050555050565b60016020528060005260406000206000915054906101000a900460ff16815600a165627a7a723058205942f138bc114934f2f1df6e362468521dcd2afd3d0d3fb564de714444767a970029",
  "source": "pragma solidity ^0.4.24;\n\n\ncontract Election {\n\n    // model your candidate\n    struct Candidate {\n        string name;\n        uint id;\n        uint votecount;\n    } \n\n    // store the candidate (it will be done through mapping)\n    mapping(uint => Candidate) public candidates;\n\n    // mapping to record if particular id has casted its vote\n    mapping(address => bool) public voter;\n\n    // use variable to maintain the count of the candidate\n    uint public count;\n\n    //constructor\n    constructor () public {\n        addCandidate(\"Candidate_1\");\n        addCandidate(\"Candidate_2\");\n    }\n\n\n    // function to add candidate (call this function from constructor)\n    function addCandidate(string _name) private {\n        count++;\n        candidates[count] = Candidate(_name,count,0);\n\n    }\n\n    // function to cast the vote for the candidates\n    function castVote(uint id) public {\n        // make sure user haven't cast his vote before\n        require(!voter[msg.sender]);    // if this statement is true, then only rest of the fun will be executed \n\n        // make sure user is voting for valid candidate\n        require(id>0 && id<=count);\n        \n        voter[msg.sender] = true;\n        candidates[id].votecount++;\n    }\n}",
  "sourcePath": "/home/mauzi/Desktop/FProject/supplyChain/contracts/supplyChain.sol",
  "compiler": {
    "name": "solc",
    "version": "0.4.24+commit.e67f0147.Emscripten.clang"
  },
  "schemaVersion": "2.0.1",
  "updatedAt": "2018-11-22T17:51:27.797Z"
}